{
  "_format": "hh-sol-artifact-1",
  "contractName": "CargoGuard",
  "sourceName": "contracts/CargoGuard.sol",
  "abi": [
    {
      "inputs": [],
      "stateMutability": "nonpayable",
      "type": "constructor"
    },
    {
      "anonymous": false,
      "inputs": [
        {
          "indexed": true,
          "internalType": "uint256",
          "name": "cargoId",
          "type": "uint256"
        },
        {
          "indexed": false,
          "internalType": "string",
          "name": "aiStatus",
          "type": "string"
        },
        {
          "indexed": false,
          "internalType": "uint256",
          "name": "timestamp",
          "type": "uint256"
        },
        {
          "indexed": false,
          "internalType": "string",
          "name": "photoHash",
          "type": "string"
        }
      ],
      "name": "DeliveryRecorded",
      "type": "event"
    },
    {
      "inputs": [],
      "name": "admin",
      "outputs": [
        {
          "internalType": "address",
          "name": "",
          "type": "address"
        }
      ],
      "stateMutability": "view",
      "type": "function"
    },
    {
      "inputs": [
        {
          "internalType": "uint256",
          "name": "",
          "type": "uint256"
        },
        {
          "internalType": "uint256",
          "name": "",
          "type": "uint256"
        }
      ],
      "name": "cargoHistory",
      "outputs": [
        {
          "internalType": "uint256",
          "name": "cargoId",
          "type": "uint256"
        },
        {
          "internalType": "string",
          "name": "aiStatus",
          "type": "string"
        },
        {
          "internalType": "uint256",
          "name": "timestamp",
          "type": "uint256"
        },
        {
          "internalType": "string",
          "name": "photoHash",
          "type": "string"
        }
      ],
      "stateMutability": "view",
      "type": "function"
    },
    {
      "inputs": [
        {
          "internalType": "uint256",
          "name": "_cargoId",
          "type": "uint256"
        }
      ],
      "name": "getCargoHistory",
      "outputs": [
        {
          "components": [
            {
              "internalType": "uint256",
              "name": "cargoId",
              "type": "uint256"
            },
            {
              "internalType": "string",
              "name": "aiStatus",
              "type": "string"
            },
            {
              "internalType": "uint256",
              "name": "timestamp",
              "type": "uint256"
            },
            {
              "internalType": "string",
              "name": "photoHash",
              "type": "string"
            }
          ],
          "internalType": "struct CargoGuard.Record[]",
          "name": "",
          "type": "tuple[]"
        }
      ],
      "stateMutability": "view",
      "type": "function"
    },
    {
      "inputs": [
        {
          "internalType": "uint256",
          "name": "_cargoId",
          "type": "uint256"
        },
        {
          "internalType": "string",
          "name": "_aiStatus",
          "type": "string"
        },
        {
          "internalType": "string",
          "name": "_photoHash",
          "type": "string"
        }
      ],
      "name": "recordCargoDelivery",
      "outputs": [],
      "stateMutability": "nonpayable",
      "type": "function"
    }
  ],
  "bytecode": "0x608060405234801561001057600080fd5b50336000806101000a81548173ffffffffffffffffffffffffffffffffffffffff021916908373ffffffffffffffffffffffffffffffffffffffff160217905550610ee4806100606000396000f3fe608060405234801561001057600080fd5b506004361061004c5760003560e01c806314af8234146100515780639210cbbe14610084578063f851a440146100a0578063f9475742146100be575b600080fd5b61006b600480360381019061006691906105d7565b6100ee565b60405161007b94939291906106b6565b60405180910390f35b61009e6004803603810190610099919061083e565b61024b565b005b6100a86103bf565b6040516100b5919061090a565b60405180910390f35b6100d860048036038101906100d39190610925565b6103e3565b6040516100e59190610ad7565b60405180910390f35b6001602052816000526040600020818154811061010a57600080fd5b90600052602060002090600402016000915091505080600001549080600101805461013490610b28565b80601f016020809104026020016040519081016040528092919081815260200182805461016090610b28565b80156101ad5780601f10610182576101008083540402835291602001916101ad565b820191906000526020600020905b81548152906001019060200180831161019057829003601f168201915b5050505050908060020154908060030180546101c890610b28565b80601f01602080910402602001604051908101604052809291908181526020018280546101f490610b28565b80156102415780601f1061021657610100808354040283529160200191610241565b820191906000526020600020905b81548152906001019060200180831161022457829003601f168201915b5050505050905084565b60008054906101000a900473ffffffffffffffffffffffffffffffffffffffff1673ffffffffffffffffffffffffffffffffffffffff163373ffffffffffffffffffffffffffffffffffffffff16146102d9576040517f08c379a00000000000000000000000000000000000000000000000000000000081526004016102d090610bcb565b60405180910390fd5b600060405180608001604052808581526020018481526020014281526020018381525090506001600085815260200190815260200160002081908060018154018082558091505060019003906000526020600020906004020160009091909190915060008201518160000155602082015181600101908161035a9190610d97565b5060408201518160020155606082015181600301908161037a9190610d97565b505050837f3556e6f875e85b2038d97847cd63c4e179ae57de0106bedfcd4f023d941c3d258442856040516103b193929190610e69565b60405180910390a250505050565b60008054906101000a900473ffffffffffffffffffffffffffffffffffffffff1681565b606060016000838152602001908152602001600020805480602002602001604051908101604052809291908181526020016000905b8282101561058257838290600052602060002090600402016040518060800160405290816000820154815260200160018201805461045590610b28565b80601f016020809104026020016040519081016040528092919081815260200182805461048190610b28565b80156104ce5780601f106104a3576101008083540402835291602001916104ce565b820191906000526020600020905b8154815290600101906020018083116104b157829003601f168201915b50505050508152602001600282015481526020016003820180546104f190610b28565b80601f016020809104026020016040519081016040528092919081815260200182805461051d90610b28565b801561056a5780601f1061053f5761010080835404028352916020019161056a565b820191906000526020600020905b81548152906001019060200180831161054d57829003601f168201915b50505050508152505081526020019060010190610418565b505050509050919050565b6000604051905090565b600080fd5b600080fd5b6000819050919050565b6105b4816105a1565b81146105bf57600080fd5b50565b6000813590506105d1816105ab565b92915050565b600080604083850312156105ee576105ed610597565b5b60006105fc858286016105c2565b925050602061060d858286016105c2565b9150509250929050565b610620816105a1565b82525050565b600081519050919050565b600082825260208201905092915050565b60005b83811015610660578082015181840152602081019050610645565b60008484015250505050565b6000601f19601f8301169050919050565b600061068882610626565b6106928185610631565b93506106a2818560208601610642565b6106ab8161066c565b840191505092915050565b60006080820190506106cb6000830187610617565b81810360208301526106dd818661067d565b90506106ec6040830185610617565b81810360608301526106fe818461067d565b905095945050505050565b600080fd5b600080fd5b7f4e487b7100000000000000000000000000000000000000000000000000000000600052604160045260246000fd5b61074b8261066c565b810181811067ffffffffffffffff8211171561076a57610769610713565b5b80604052505050565b600061077d61058d565b90506107898282610742565b919050565b600067ffffffffffffffff8211156107a9576107a8610713565b5b6107b28261066c565b9050602081019050919050565b82818337600083830152505050565b60006107e16107dc8461078e565b610773565b9050828152602081018484840111156107fd576107fc61070e565b5b6108088482856107bf565b509392505050565b600082601f83011261082557610824610709565b5b81356108358482602086016107ce565b91505092915050565b60008060006060848603121561085757610856610597565b5b6000610865868287016105c2565b935050602084013567ffffffffffffffff8111156108865761088561059c565b5b61089286828701610810565b925050604084013567ffffffffffffffff8111156108b3576108b261059c565b5b6108bf86828701610810565b9150509250925092565b600073ffffffffffffffffffffffffffffffffffffffff82169050919050565b60006108f4826108c9565b9050919050565b610904816108e9565b82525050565b600060208201905061091f60008301846108fb565b92915050565b60006020828403121561093b5761093a610597565b5b6000610949848285016105c2565b91505092915050565b600081519050919050565b600082825260208201905092915050565b6000819050602082019050919050565b610987816105a1565b82525050565b600082825260208201905092915050565b60006109a982610626565b6109b3818561098d565b93506109c3818560208601610642565b6109cc8161066c565b840191505092915050565b60006080830160008301516109ef600086018261097e565b5060208301518482036020860152610a07828261099e565b9150506040830151610a1c604086018261097e565b5060608301518482036060860152610a34828261099e565b9150508091505092915050565b6000610a4d83836109d7565b905092915050565b6000602082019050919050565b6000610a6d82610952565b610a77818561095d565b935083602082028501610a898561096e565b8060005b85811015610ac55784840389528151610aa68582610a41565b9450610ab183610a55565b925060208a01995050600181019050610a8d565b50829750879550505050505092915050565b60006020820190508181036000830152610af18184610a62565b905092915050565b7f4e487b7100000000000000000000000000000000000000000000000000000000600052602260045260246000fd5b60006002820490506001821680610b4057607f821691505b602082108103610b5357610b52610af9565b5b50919050565b7f477576656e6c696b3a20536164656365204b6172676f4775617264207965746b60008201527f696c697369206b61796974207961706162696c69722e00000000000000000000602082015250565b6000610bb5603683610631565b9150610bc082610b59565b604082019050919050565b60006020820190508181036000830152610be481610ba8565b9050919050565b60008190508160005260206000209050919050565b60006020601f8301049050919050565b600082821b905092915050565b600060088302610c4d7fffffffffffffffffffffffffffffffffffffffffffffffffffffffffffffffff82610c10565b610c578683610c10565b95508019841693508086168417925050509392505050565b6000819050919050565b6000610c94610c8f610c8a846105a1565b610c6f565b6105a1565b9050919050565b6000819050919050565b610cae83610c79565b610cc2610cba82610c9b565b848454610c1d565b825550505050565b600090565b610cd7610cca565b610ce2818484610ca5565b505050565b5b81811015610d0657610cfb600082610ccf565b600181019050610ce8565b5050565b601f821115610d4b57610d1c81610beb565b610d2584610c00565b81016020851015610d34578190505b610d48610d4085610c00565b830182610ce7565b50505b505050565b600082821c905092915050565b6000610d6e60001984600802610d50565b1980831691505092915050565b6000610d878383610d5d565b9150826002028217905092915050565b610da082610626565b67ffffffffffffffff811115610db957610db8610713565b5b610dc38254610b28565b610dce828285610d0a565b600060209050601f831160018114610e015760008415610def578287015190505b610df98582610d7b565b865550610e61565b601f198416610e0f86610beb565b60005b82811015610e3757848901518255600182019150602085019450602081019050610e12565b86831015610e545784890151610e50601f891682610d5d565b8355505b6001600288020188555050505b505050505050565b60006060820190508181036000830152610e83818661067d565b9050610e926020830185610617565b8181036040830152610ea4818461067d565b905094935050505056fea26469706673582212200fd2a2f04c475461b405c5bdb6824522c8ecd56f7083e8e13229d94e4ddcf3a464736f6c63430008180033",
  "linkReferences": {},
  "deployedLinkReferences": {}
}